:1000000021C03AC038C0BCC136C035C034C033C0CE
:1000100092C131C05BC05CC05DC060C061C062C0E5
:1000200063C064C067C068C069C06CC0AAA05550F6
:1000300020005000880004100220014000809240FF
:100040004920249011241FBECFE9CDBF10E0A0E6C7
:10005000B0E0E8EFF3E002C005900D92A236B107E0
:10006000D9F720E0A2E6B0E001C01D92AE36B2079B
:10007000E1F75DD1BFC1C4CF1F920F920FB60F92AF
:1000800011248F9385B78F7D85BF81E080936100B8
:100090008F910F900FBE0F901F90189587B3827E9F
:1000A00087BB88B3827E88BB0895CF93DF931F926E
:1000B000CDB7DD278983F2DF898190E08C3091050F
:1000C00028F5FC01E65FFF4F87B30994856017C0F0
:1000D000856001C08C6087BBC29A19C08C6007C064
:1000E000886105C088610FC0896009C0896087BBCD
:1000F000C39A0DC08461EFCF846105C0816187BB65
:10010000C09A05C0816187BBC49A01C000000F90EE
:10011000DF91CF91089510926400C0DF84B7877F8C
:1001200084BF81B5886181BD11BC37988BB780646D
:100130008BBF8BB780628BBF85B7877E806185BFA1
:1001400085B7806285BF7894889585B78F7D85BF98
:100150000895C19AB998DFCFEF92FF920F931F9342
:10016000CF93DF938C01E12CF12CE016F10649F1DD
:10017000C0E0D0E08C2FC830D10550F4209163004E
:1001800030E00C2E02C0359527950A94E2F70BC09B
:100190002091620030E0AE014450510902C0359513
:1001A00027954A95E2F720FF02C07FDF02C076DF85
:1001B00000002196CC30D105E9F68FEFE81AF80A55
:1001C000D4CFDF91CF911F910F91FF90EF900895C1
:1001D000EF92FF920F931F93CF93DF93D82F8B0152
:1001E0007A01C0E0CD1798F42C2F30E0F801E20F2F
:1001F000F31FE491E0936300F9013196E00FF11FE2
:10020000E491E0936200C701A7DFCE5FEBCFDF91FF
:10021000CF911F910F91FF90EF900895CF93DF93AF
:1002200080916400823051F138F48823B1F081303C
:1002300099F5C8E0D0E017C0833041F1843061F512
:10024000C8EFD0E0AE0160E370E08EE0C1DF289738
:10025000C83F8FEFD807B1F722C040E052E06EE30D
:1002600070E086E010C0AE016EE370E086E0B0DFC3
:100270006096C83082E0D807B1F711C040E052E084
:1002800060E370E08EE0DF91CF91A2CF40E058E0D4
:100290006CE270E084E0F7CFDF91CF91FFCEDF9189
:1002A000CF91089580E090E00000019680342CE921
:1002B0009207D1F708958BE0F8DEF4DFEFDE00005F
:1002C000F1CF80916100882329F0F89410926100A9
:1002D00010926500B19927C0809165008F5F80936F
:1002E0006500E0DFB19B15C010926500809164004D
:1002F0008F5F8093640090916000891302C0109218
:10030000640080916400D1DECDDFCCDFCBDFCADFBB
:10031000C9DF80916500873048F0CDDFCCDFCBDFCF
:10032000CADFC9DFF8CE7ADF1092650008954DD09C
:1003300010DFC7DFFECF1F920F920FB60F9211246E
:100340008F939F93AF93BF9380916A0090916B00BE
:10035000A0916C00B0916D000196A11DB11D80931C
:100360006A0090936B00A0936C00B0936D00BF91F6
:10037000AF919F918F910F900FBE0F901F90189586
:100380001F920F920FB60F9211248F939F93AF93EA
:10039000BF938091660090916700A0916800B09132
:1003A00069000196A11DB11D8093660090936700BE
:1003B000A0936800B0936900BF91AF919F918F9116
:1003C0000F900FBE0F901F90189583B7826083BF68
:1003D0008FB583608FBDF894A89580E481BD789433
:1003E00089B7826089BF12BE789417B886B18468D5
:0803F00086B90895F894FFCFCF
:0203F8000501FD
:00000001FF
