:1000000021C051C038C037C036C035C034C033C03D
:1000100032C031C0050105040C040C081808181082
:10002000090109081404141011011110AAA0555057
:1000300020005000880004100220014000809240FF
:100040004920249011241FBECFE9CDBF10E0A0E6C7
:10005000B0E0E4E0F3E002C005900D92A236B107F3
:10006000D9F720E0A2E6B0E001C01D92A636B207A3
:10007000E1F70BD145C1C4CF88B3827E88BB17BAE4
:100080000895CF93C82FF8DFEC2FF0E0EE0FFF1F9D
:10009000EC5EFF4F859187BB98B38491892B88BB19
:1000A0000000CF9108951F920F920FB60F92112466
:1000B0008F9385B78F7D85BF81E0809361008F919D
:1000C0000F900FBE0F901F90189510926400D4DF10
:1000D00084B7877F84BF81B5886181BD11BC3798A3
:1000E0008BB780648BBF8BB780628BBF85B7877EF1
:1000F000806185BF85B7806285BF7894889585B714
:100100008F7D85BF0895CF92DF92EF92FF920F937C
:100110001F93CF93DF93009759F532C08C2FC830CF
:1001200060F42091630030E00C2E02C035952795D5
:100130000A94E2F720FD0EC00FC02091620030E06B
:10014000AE014450510902C0359527954A95E2F712
:1001500020FF02C096DF02C08FEF93DF2196CC30E4
:10016000D105E1F60F5F1F4F0E151F0531F408C0D2
:100170007C0100E010E0C12CD12CCC2DDD2DCECFA8
:10018000DF91CF911F910F91FF90EF90DF90CF9073
:100190000895EF92FF920F931F93CF93DF938823DD
:1001A000C9F08A01EB01E82EF12C2F2D30E0FE0181
:1001B000E20FF31FE491E0936300F9013196EC0F35
:1001C000FD1FE491E0936200C8019DDFF394F39476
:1001D000FE1458F3DF91CF911F910F91FF90EF9094
:1001E0000895CF93DF93809164008230F9F028F472
:1001F000882341F0813069F034C08330F1F08430DD
:1002000019F12FC040E052E06EE370E086E0C1DFFC
:1002100029C0C8E0D0E0AE016EE370E086E0B9DF4F
:100220006096C83082E0D807B1F71CC040E052E0C9
:1002300060E370E08EE0ADDF15C040E058E06CE2B6
:1002400070E084E0A6DF0EC0C8EFD0E0AE0160E34E
:1002500070E08EE09EDF2897C83F8FEFD807B1F798
:1002600001C00ADFDF91CF91089580E090E00000A7
:10027000019680342CE99207D1F708958BE001DFD5
:10028000F4DF8FEFFEDEF1DF0895C19AB9981DDF2C
:1002900080916100882329F0F894109261001092F7
:1002A0006500B1991EC0809165008F5F80936500E5
:1002B000DCDFB19B1AC010926500809164008F5FF3
:1002C0008093640090916000891302C010926400D2
:1002D00080916400D6DEC9DFC8DFC7DFC6DFC5DFB7
:1002E00004C07FDF10926500D3CF809165008E300F
:1002F00078F2C4DFC3DFC2DFC1DFC0DFE6DEC8CF14
:04030000F894FFCF9F
:020304000501F1
:00000001FF
