S00D000062616467652E7372656324
S113000035C095C14CC04BC04AC049C0C3C047C0ED
S113001046C045C07BC087C093C09FC074C080C029
S11300208CC098C0AA0A550501000200040008000B
S113003010002000400080000001000200040008BD
S11300402000500088000401020201040008240971
S113005092044902050105040C040C081808181040
S113006009010908140414101101111011241FBEF0
S1130070CFE9CDBF10E0A0E6B0E0E6EDF3E002C0CA
S113008005900D92A636B107D9F720E0A6E6B0E0B8
S113009001C01D92A237B207E1F77CD19AC1B0CF5B
S11300A082E08FBD85E083BF84E089BF81E086BFA5
S11300B02FEF3FEF30936C0020936B0010926A0097
S11300C010926F009BE090936E0028E230E0309332
S11300D0710020937000809368000895CF93C82F17
S11300E01092680004D110926F0010926A0082E3AB
S11300F0809364008C2F90E088309105B8F5FC0162
S1130100E65FFF4F099489E1809364008CE080935B
S11301106E0088E290E0909371008093700026C096
S113012089E18093640087E080936E0080E490E02E
S1130130909371008093700019C089E180936400EA
S113014083E080936E008EE490E09093710080933E
S113015070000CC089E18093640082E080936E009B
S113016084E290E09093710080937000E0917000BD
S1130170F09171008591959190936C0080936B0040
S113018081E080936800CF91089580916600109279
S1130190660008951F920F920FB60F9211242F93A9
S11301A03F934F935F936F937F938F939F93AF93FB
S11301B0BF93EF93FF9380916800882309F44DC0A7
S11301C080916B0090916C0080FF04C080916A0064
S11301D093D002C08FEF90D080916A008F5F80939C
S11301E06A0080916B0090916C009695879590932E
S11301F06C0080936B0080916A008C3070F1809168
S113020069008F5F8093690010926A009091690081
S113021080916400891778F41092690080916F00CE
S11302208F5F80936F0090916F0080916E0098179C
S113023010F010926F0080916F00209170009091E7
S11302407100E22FF92FE80FF11DE80FF11D8591E0
S1130250959190936C0080936B00809167008F5F01
S11302608093670080916700863080F11092670068
S113027086B3827080936300811109C090916100FC
S11302809F5F9F3FF1F49EEF909361001CC04091EB
S11302906200282F30E050E0409550952423352308
S11302A0232B61F090916100993C18F091E09093B8
S11302B0600091E090936600109261008093620068
S11302C005C09093610090916200F8CFFF91EF9187
S11302D0BF91AF919F918F917F916F915F914F915A
S11302E03F912F910F900FBE0F901F90189588B3D8
S11302F0827E88BB17BA0895CF93C82FF8DF000019
S1130300CC3090F498B3EC2FF0E0EE0FFF1FAF0168
S11303104C5A5F4F9A012F5F3F4FF9018491892B0B
S113032088BBFA01849187BB0000CF9108951F9286
S11303300F920FB60F9211248F9385B78F7D85BFCF
S11303408BB78F7B8BBF8BB78F7D8BBF10926D006C
S11303508F910F900FBE0F901F901895C8DF84B730
S1130360877F84BF81B5886181BD11BC37988BB705
S113037080648BBF8BB780628BBF85B7877E8061BB
S113038085BF85B7806285BF7894889585B78F7D52
S113039085BF0895C19AB99883DE80916D009EDE71
S11303A0789480916000882319F010926000D6DF61
S11303B0ECDE8823B1F380916D008F5F883018F4F0
S11303C080936D0002C010926D0080916D0086DEF6
S10903D0E8CFF894FFCF12
S10903D6010702023200DF
S9030000FC
