S00D000062616467652E7372656324
S113000039C09FC150C04FC04EC04DC0C9C04BC0C5
S11300104AC049C07EC08AC096C0A2C077C083C00F
S11300208FC09BC00F00AA0A5505070001000200FB
S113003004000800100020004000800000010002BD
S1130040000400080300200050008800040102029C
S11300500104000801002409920449020501050471
S11300600C040C08180818100901090814041410C9
S11300701101111011241FBECFE9CDBF10E0A0E67D
S1130080B0E0EAEEF3E002C005900D92A636B107A7
S1130090D9F720E0A6E6B0E001C01D92A237B2076E
S11300A0E1F782D1A0C1ACCF82E08FBD85E083BFF0
S11300B084E089BF81E086BF2FEF3FEF30936C006F
S11300C020936B0010926A0010926F009CE0909352
S11300D06E002AE230E03093710020937000809328
S11300E068000895CF93C82F109268000ED1109223
S11300F06F0010926A00109269008C2F90E0883093
S11301009105B8F5FC01E65FFF4F099489E18093FE
S113011065008DE080936E008AE290E09093710018
S11301208093700026C089E18093650088E0809305
S11301306E0084E490E0909371008093700019C085
S113014089E18093650084E080936E0084E590E00B
S113015090937100809370000CC089E180936500D6
S113016083E080936E0084E290E09093710080932A
S11301707000E0917000F0917100859195919093D9
S11301806C0080936B008FEF8093640081E0809318
S11301906800CF91089580916600109266000895DA
S11301A01F920F920FB60F9211242F933F934F93E8
S11301B05F936F937F938F939F93AF93BF93EF93CB
S11301C0FF9380916800882309F455C080916B00E7
S11301D090916C0080FF04C080916A009BD002C0A3
S11301E08FEF98D080916A008F5F80936A0080912E
S11301F06B0090916C009695879590936C0080931A
S11302006B0080916A008C30B0F1809169008F5F3F
S11302108093690010926A00909169008091640053
S11302209817C8F08091650080936400109269006B
S113023080916F008F5F80936F0020916F00809199
S11302406E00022E000C330B90E0281739071CF0C7
S113025081E080936F00E0916F00EE0FFF0B8091BF
S1130260700090917100E80FF91F8591959190931A
S11302706C0080936B00809167008F5F80936700B0
S113028080916700863080F11092670086B3827097
S113029080936300811109C0909161009F5F9F3F2B
S11302A0F1F49EEF909361001CC040916200282FEE
S11302B030E050E04095509524233523232B61F002
S11302C090916100993C18F091E09093600091E066
S11302D090936600109261008093620005C0909331
S11302E0610090916200F8CFFF91EF91BF91AF91BF
S11302F09F918F917F916F915F914F913F912F913A
S11303000F900FBE0F901F90189588B3827E88BB04
S113031017BA0895CF93C82FF8DF98B3EC2FF0E005
S1130320EE0FFF1FAF01445A5F4F9A012F5F3F4FFB
S1130330F9018491892B88BBFA01849187BBCF9101
S113034008951F920F920FB60F9211248F9385B7C1
S11303508F7D85BF8BB78F7B8BBF8BB78F7D8BBF1B
S113036010926D008F910F900FBE0F901F901895F3
S1130370CCDF84B7877F84BF81B5886181BD11BC20
S113038037988BB780648BBF8BB780628BBF85B780
S1130390877E806185BF85B7806285BF78948895A4
S11303A085B78F7D85BF0895C19AB9987DDE809108
S11303B06D0098DE789480916000882319F0109283
S11303C06000D6DFE8DE8823B1F380916D008F5F93
S11303D0883018F480936D0002C010926D008091F3
S10D03E06D0080DEE8CFF894FFCF33
S10903EA01070202FF32CC
S9030000FC
